{
  "contractName": "admined",
  "abi": [
    {
      "inputs": [],
      "stateMutability": "nonpayable",
      "type": "constructor"
    },
    {
      "inputs": [],
      "name": "admin",
      "outputs": [
        {
          "internalType": "address",
          "name": "",
          "type": "address"
        }
      ],
      "stateMutability": "view",
      "type": "function"
    },
    {
      "inputs": [
        {
          "internalType": "address",
          "name": "newAdmin",
          "type": "address"
        }
      ],
      "name": "transferAdminship",
      "outputs": [],
      "stateMutability": "nonpayable",
      "type": "function"
    }
  ],
  "bytecode": "0x608060405234801561001057600080fd5b50336000806101000a81548173ffffffffffffffffffffffffffffffffffffffff021916908373ffffffffffffffffffffffffffffffffffffffff16021790555061021b806100606000396000f3fe608060405234801561001057600080fd5b50600436106100365760003560e01c80635be7cc161461003b578063f851a44014610057575b600080fd5b61005560048036038101906100509190610149565b610075565b005b61005f610110565b60405161006c9190610181565b60405180910390f35b60008054906101000a900473ffffffffffffffffffffffffffffffffffffffff1673ffffffffffffffffffffffffffffffffffffffff163373ffffffffffffffffffffffffffffffffffffffff16146100cd57600080fd5b806000806101000a81548173ffffffffffffffffffffffffffffffffffffffff021916908373ffffffffffffffffffffffffffffffffffffffff16021790555050565b60008054906101000a900473ffffffffffffffffffffffffffffffffffffffff1681565b600081359050610143816101ce565b92915050565b60006020828403121561015b57600080fd5b600061016984828501610134565b91505092915050565b61017b8161019c565b82525050565b60006020820190506101966000830184610172565b92915050565b60006101a7826101ae565b9050919050565b600073ffffffffffffffffffffffffffffffffffffffff82169050919050565b6101d78161019c565b81146101e257600080fd5b5056fea2646970667358221220c91982ebffab7c6136b7347c98fa139a0b48d71d5979c2a9dae0a72bbdac6bf764736f6c63430008000033",
  "immutableReferences": {},
  "source": "// SPDX-License-Identifier: MITp\r\npragma solidity ^0.8.0;\r\n\r\n// Caller of this contract is made the admin/owner for HCoin\r\n// this contract allows us transfer ownership to another account (transferAdminship)\r\ncontract admined {\r\n    address public admin;\r\n\r\n    // constructor ??\r\n    constructor() {\r\n        admin = msg.sender;\r\n    }\r\n\r\n    modifier onlyAdmin() {\r\n        require(msg.sender == admin);\r\n        _;\r\n    }\r\n\r\n    function transferAdminship(address newAdmin) public onlyAdmin {\r\n        admin = newAdmin;\r\n    }\r\n}\r\n\r\ncontract HCoin {\r\n    mapping(address => uint256) public balanceOf;\r\n    mapping(address => mapping(address => uint256)) public allowance;\r\n\r\n    string public standard = \"HCoin v1.0\";\r\n    string public name;\r\n    string public symbol;\r\n    uint8 public decimals;\r\n    uint256 public totalSupply;\r\n\r\n    event Transfer(address indexed from, address indexed to, uint256 value);\r\n\r\n    constructor(\r\n        uint256 initialSupply,\r\n        string memory tokenName,\r\n        string memory tokenSymbol,\r\n        uint8 decimalUnits\r\n    ) {\r\n        balanceOf[msg.sender] = initialSupply;\r\n        totalSupply = initialSupply;\r\n        decimals = decimalUnits;\r\n        symbol = tokenSymbol;\r\n        name = tokenName;\r\n    }\r\n\r\n    function setStandard(string memory _standard) public {\r\n        standard = _standard;\r\n    }\r\n\r\n    function transfer(address _to, uint256 _value) public {\r\n        //the following require statements are checking for overflows/underflows\r\n        require(balanceOf[msg.sender] > _value);\r\n        require(balanceOf[_to] + _value > balanceOf[_to]);\r\n\r\n        balanceOf[msg.sender] -= _value;\r\n        balanceOf[_to] += _value;\r\n        emit Transfer(msg.sender, _to, _value);\r\n    }\r\n\r\n    // owner of tokens can approve amount of tokens another address can spend on their behalf\r\n    function approve(address _spender, uint256 _value) public returns (bool _success) {\r\n        allowance[msg.sender][_spender] = _value;\r\n        return true;\r\n    }\r\n    \r\n    // Transfer tokens from one address to another, from \r\n    function transferFrom(address _from, address _to, uint256 _value) public returns (bool _success){\r\n        require(balanceOf[_from] > _value);\r\n        require(balanceOf[_to] + _value > balanceOf[_to]);\r\n        require(_value < allowance[_from][msg.sender]);\r\n        balanceOf[_from] -= _value;\r\n        balanceOf[_to] += _value;\r\n        allowance[_from][msg.sender] -= _value;\r\n        emit Transfer(_from, _to, _value);\r\n        return true;\r\n    }\r\n\r\n}\r\n",
  "sourcePath": "C:/Users/litad/Documents/Projects/blockchain-council/erc20/contracts/tokenCoin.sol",
  "compiler": {
    "name": "solc",
    "version": "0.8.0+commit.c7dfd78e.Emscripten.clang"
  },
  "schemaVersion": "3.4.1",
  "updatedAt": "2021-06-22T08:11:53.520Z",
  "devdoc": {
    "kind": "dev",
    "methods": {},
    "version": 1
  },
  "userdoc": {
    "kind": "user",
    "methods": {},
    "version": 1
  }
}