{
  "contractName": "HCoin",
  "abi": [
    {
      "inputs": [
        {
          "internalType": "uint256",
          "name": "initialSupply",
          "type": "uint256"
        },
        {
          "internalType": "string",
          "name": "tokenName",
          "type": "string"
        },
        {
          "internalType": "string",
          "name": "tokenSymbol",
          "type": "string"
        },
        {
          "internalType": "uint8",
          "name": "decimalUnits",
          "type": "uint8"
        }
      ],
      "stateMutability": "nonpayable",
      "type": "constructor"
    },
    {
      "anonymous": false,
      "inputs": [
        {
          "indexed": true,
          "internalType": "address",
          "name": "from",
          "type": "address"
        },
        {
          "indexed": true,
          "internalType": "address",
          "name": "to",
          "type": "address"
        },
        {
          "indexed": false,
          "internalType": "uint256",
          "name": "value",
          "type": "uint256"
        }
      ],
      "name": "Transfer",
      "type": "event"
    },
    {
      "inputs": [
        {
          "internalType": "address",
          "name": "",
          "type": "address"
        },
        {
          "internalType": "address",
          "name": "",
          "type": "address"
        }
      ],
      "name": "allowance",
      "outputs": [
        {
          "internalType": "uint256",
          "name": "",
          "type": "uint256"
        }
      ],
      "stateMutability": "view",
      "type": "function",
      "constant": true
    },
    {
      "inputs": [
        {
          "internalType": "address",
          "name": "",
          "type": "address"
        }
      ],
      "name": "balanceOf",
      "outputs": [
        {
          "internalType": "uint256",
          "name": "",
          "type": "uint256"
        }
      ],
      "stateMutability": "view",
      "type": "function",
      "constant": true
    },
    {
      "inputs": [],
      "name": "decimals",
      "outputs": [
        {
          "internalType": "uint8",
          "name": "",
          "type": "uint8"
        }
      ],
      "stateMutability": "view",
      "type": "function",
      "constant": true
    },
    {
      "inputs": [],
      "name": "name",
      "outputs": [
        {
          "internalType": "string",
          "name": "",
          "type": "string"
        }
      ],
      "stateMutability": "view",
      "type": "function",
      "constant": true
    },
    {
      "inputs": [],
      "name": "standard",
      "outputs": [
        {
          "internalType": "string",
          "name": "",
          "type": "string"
        }
      ],
      "stateMutability": "view",
      "type": "function",
      "constant": true
    },
    {
      "inputs": [],
      "name": "symbol",
      "outputs": [
        {
          "internalType": "string",
          "name": "",
          "type": "string"
        }
      ],
      "stateMutability": "view",
      "type": "function",
      "constant": true
    },
    {
      "inputs": [],
      "name": "totalSupply",
      "outputs": [
        {
          "internalType": "uint256",
          "name": "",
          "type": "uint256"
        }
      ],
      "stateMutability": "view",
      "type": "function",
      "constant": true
    },
    {
      "inputs": [
        {
          "internalType": "string",
          "name": "_standard",
          "type": "string"
        }
      ],
      "name": "setStandard",
      "outputs": [],
      "stateMutability": "nonpayable",
      "type": "function"
    },
    {
      "inputs": [
        {
          "internalType": "address",
          "name": "_to",
          "type": "address"
        },
        {
          "internalType": "uint256",
          "name": "_value",
          "type": "uint256"
        }
      ],
      "name": "transfer",
      "outputs": [],
      "stateMutability": "nonpayable",
      "type": "function"
    },
    {
      "inputs": [
        {
          "internalType": "address",
          "name": "_spender",
          "type": "address"
        },
        {
          "internalType": "uint256",
          "name": "_value",
          "type": "uint256"
        }
      ],
      "name": "approve",
      "outputs": [
        {
          "internalType": "bool",
          "name": "_success",
          "type": "bool"
        }
      ],
      "stateMutability": "nonpayable",
      "type": "function"
    },
    {
      "inputs": [
        {
          "internalType": "address",
          "name": "_from",
          "type": "address"
        },
        {
          "internalType": "address",
          "name": "_to",
          "type": "address"
        },
        {
          "internalType": "uint256",
          "name": "_value",
          "type": "uint256"
        }
      ],
      "name": "transferFrom",
      "outputs": [
        {
          "internalType": "bool",
          "name": "_success",
          "type": "bool"
        }
      ],
      "stateMutability": "nonpayable",
      "type": "function"
    }
  ],
  "bytecode": "0x60806040526040518060400160405280600a81526020017f48436f696e2076312e3000000000000000000000000000000000000000000000815250600290805190602001906200005192919062000126565b503480156200005f57600080fd5b506040516200149838038062001498833981810160405281019062000085919062000276565b836000803373ffffffffffffffffffffffffffffffffffffffff1673ffffffffffffffffffffffffffffffffffffffff168152602001908152602001600020819055508360068190555080600560006101000a81548160ff021916908360ff16021790555081600490805190602001906200010292919062000126565b5082600390805190602001906200011b92919062000126565b505050505062000490565b8280546200013490620003c8565b90600052602060002090601f016020900481019282620001585760008555620001a4565b82601f106200017357805160ff1916838001178555620001a4565b82800160010185558215620001a4579182015b82811115620001a357825182559160200191906001019062000186565b5b509050620001b39190620001b7565b5090565b5b80821115620001d2576000816000905550600101620001b8565b5090565b6000620001ed620001e78462000348565b62000314565b9050828152602081018484840111156200020657600080fd5b6200021384828562000392565b509392505050565b600082601f8301126200022d57600080fd5b81516200023f848260208601620001d6565b91505092915050565b60008151905062000259816200045c565b92915050565b600081519050620002708162000476565b92915050565b600080600080608085870312156200028d57600080fd5b60006200029d8782880162000248565b945050602085015167ffffffffffffffff811115620002bb57600080fd5b620002c9878288016200021b565b935050604085015167ffffffffffffffff811115620002e757600080fd5b620002f5878288016200021b565b925050606062000308878288016200025f565b91505092959194509250565b6000604051905081810181811067ffffffffffffffff821117156200033e576200033d6200042d565b5b8060405250919050565b600067ffffffffffffffff8211156200036657620003656200042d565b5b601f19601f8301169050602081019050919050565b6000819050919050565b600060ff82169050919050565b60005b83811015620003b257808201518184015260208101905062000395565b83811115620003c2576000848401525b50505050565b60006002820490506001821680620003e157607f821691505b60208210811415620003f857620003f7620003fe565b5b50919050565b7f4e487b7100000000000000000000000000000000000000000000000000000000600052602260045260246000fd5b7f4e487b7100000000000000000000000000000000000000000000000000000000600052604160045260246000fd5b62000467816200037b565b81146200047357600080fd5b50565b620004818162000385565b81146200048d57600080fd5b50565b610ff880620004a06000396000f3fe608060405234801561001057600080fd5b50600436106100a95760003560e01c80635a3b7e42116100715780635a3b7e421461016857806370a082311461018657806395d89b41146101b6578063a5610de5146101d4578063a9059cbb146101f0578063dd62ed3e1461020c576100a9565b806306fdde03146100ae578063095ea7b3146100cc57806318160ddd146100fc57806323b872dd1461011a578063313ce5671461014a575b600080fd5b6100b661023c565b6040516100c39190610cce565b60405180910390f35b6100e660048036038101906100e19190610bd0565b6102ca565b6040516100f39190610cb3565b60405180910390f35b610104610357565b6040516101119190610cf0565b60405180910390f35b610134600480360381019061012f9190610b81565b61035d565b6040516101419190610cb3565b60405180910390f35b610152610671565b60405161015f9190610d0b565b60405180910390f35b610170610684565b60405161017d9190610cce565b60405180910390f35b6101a0600480360381019061019b9190610b1c565b610712565b6040516101ad9190610cf0565b60405180910390f35b6101be61072a565b6040516101cb9190610cce565b60405180910390f35b6101ee60048036038101906101e99190610c0c565b6107b8565b005b61020a60048036038101906102059190610bd0565b6107d2565b005b61022660048036038101906102219190610b45565b6109c2565b6040516102339190610cf0565b60405180910390f35b6003805461024990610ec4565b80601f016020809104026020016040519081016040528092919081815260200182805461027590610ec4565b80156102c25780601f10610297576101008083540402835291602001916102c2565b820191906000526020600020905b8154815290600101906020018083116102a557829003601f168201915b505050505081565b600081600160003373ffffffffffffffffffffffffffffffffffffffff1673ffffffffffffffffffffffffffffffffffffffff16815260200190815260200160002060008573ffffffffffffffffffffffffffffffffffffffff1673ffffffffffffffffffffffffffffffffffffffff168152602001908152602001600020819055506001905092915050565b60065481565b6000816000808673ffffffffffffffffffffffffffffffffffffffff1673ffffffffffffffffffffffffffffffffffffffff16815260200190815260200160002054116103a957600080fd5b6000808473ffffffffffffffffffffffffffffffffffffffff1673ffffffffffffffffffffffffffffffffffffffff16815260200190815260200160002054826000808673ffffffffffffffffffffffffffffffffffffffff1673ffffffffffffffffffffffffffffffffffffffff168152602001908152602001600020546104329190610da3565b1161043c57600080fd5b600160008573ffffffffffffffffffffffffffffffffffffffff1673ffffffffffffffffffffffffffffffffffffffff16815260200190815260200160002060003373ffffffffffffffffffffffffffffffffffffffff1673ffffffffffffffffffffffffffffffffffffffff1681526020019081526020016000205482106104c457600080fd5b816000808673ffffffffffffffffffffffffffffffffffffffff1673ffffffffffffffffffffffffffffffffffffffff16815260200190815260200160002060008282546105129190610df9565b92505081905550816000808573ffffffffffffffffffffffffffffffffffffffff1673ffffffffffffffffffffffffffffffffffffffff16815260200190815260200160002060008282546105679190610da3565b9250508190555081600160008673ffffffffffffffffffffffffffffffffffffffff1673ffffffffffffffffffffffffffffffffffffffff16815260200190815260200160002060003373ffffffffffffffffffffffffffffffffffffffff1673ffffffffffffffffffffffffffffffffffffffff16815260200190815260200160002060008282546105fa9190610df9565b925050819055508273ffffffffffffffffffffffffffffffffffffffff168473ffffffffffffffffffffffffffffffffffffffff167fddf252ad1be2c89b69c2b068fc378daa952ba7f163c4a11628f55a4df523b3ef8460405161065e9190610cf0565b60405180910390a3600190509392505050565b600560009054906101000a900460ff1681565b6002805461069190610ec4565b80601f01602080910402602001604051908101604052809291908181526020018280546106bd90610ec4565b801561070a5780601f106106df5761010080835404028352916020019161070a565b820191906000526020600020905b8154815290600101906020018083116106ed57829003601f168201915b505050505081565b60006020528060005260406000206000915090505481565b6004805461073790610ec4565b80601f016020809104026020016040519081016040528092919081815260200182805461076390610ec4565b80156107b05780601f10610785576101008083540402835291602001916107b0565b820191906000526020600020905b81548152906001019060200180831161079357829003601f168201915b505050505081565b80600290805190602001906107ce9291906109e7565b5050565b806000803373ffffffffffffffffffffffffffffffffffffffff1673ffffffffffffffffffffffffffffffffffffffff168152602001908152602001600020541161081c57600080fd5b6000808373ffffffffffffffffffffffffffffffffffffffff1673ffffffffffffffffffffffffffffffffffffffff16815260200190815260200160002054816000808573ffffffffffffffffffffffffffffffffffffffff1673ffffffffffffffffffffffffffffffffffffffff168152602001908152602001600020546108a59190610da3565b116108af57600080fd5b806000803373ffffffffffffffffffffffffffffffffffffffff1673ffffffffffffffffffffffffffffffffffffffff16815260200190815260200160002060008282546108fd9190610df9565b92505081905550806000808473ffffffffffffffffffffffffffffffffffffffff1673ffffffffffffffffffffffffffffffffffffffff16815260200190815260200160002060008282546109529190610da3565b925050819055508173ffffffffffffffffffffffffffffffffffffffff163373ffffffffffffffffffffffffffffffffffffffff167fddf252ad1be2c89b69c2b068fc378daa952ba7f163c4a11628f55a4df523b3ef836040516109b69190610cf0565b60405180910390a35050565b6001602052816000526040600020602052806000526040600020600091509150505481565b8280546109f390610ec4565b90600052602060002090601f016020900481019282610a155760008555610a5c565b82601f10610a2e57805160ff1916838001178555610a5c565b82800160010185558215610a5c579182015b82811115610a5b578251825591602001919060010190610a40565b5b509050610a699190610a6d565b5090565b5b80821115610a86576000816000905550600101610a6e565b5090565b6000610a9d610a9884610d57565b610d26565b905082815260208101848484011115610ab557600080fd5b610ac0848285610e82565b509392505050565b600081359050610ad781610f94565b92915050565b600082601f830112610aee57600080fd5b8135610afe848260208601610a8a565b91505092915050565b600081359050610b1681610fab565b92915050565b600060208284031215610b2e57600080fd5b6000610b3c84828501610ac8565b91505092915050565b60008060408385031215610b5857600080fd5b6000610b6685828601610ac8565b9250506020610b7785828601610ac8565b9150509250929050565b600080600060608486031215610b9657600080fd5b6000610ba486828701610ac8565b9350506020610bb586828701610ac8565b9250506040610bc686828701610b07565b9150509250925092565b60008060408385031215610be357600080fd5b6000610bf185828601610ac8565b9250506020610c0285828601610b07565b9150509250929050565b600060208284031215610c1e57600080fd5b600082013567ffffffffffffffff811115610c3857600080fd5b610c4484828501610add565b91505092915050565b610c5681610e3f565b82525050565b6000610c6782610d87565b610c718185610d92565b9350610c81818560208601610e91565b610c8a81610f83565b840191505092915050565b610c9e81610e6b565b82525050565b610cad81610e75565b82525050565b6000602082019050610cc86000830184610c4d565b92915050565b60006020820190508181036000830152610ce88184610c5c565b905092915050565b6000602082019050610d056000830184610c95565b92915050565b6000602082019050610d206000830184610ca4565b92915050565b6000604051905081810181811067ffffffffffffffff82111715610d4d57610d4c610f54565b5b8060405250919050565b600067ffffffffffffffff821115610d7257610d71610f54565b5b601f19601f8301169050602081019050919050565b600081519050919050565b600082825260208201905092915050565b6000610dae82610e6b565b9150610db983610e6b565b9250827fffffffffffffffffffffffffffffffffffffffffffffffffffffffffffffffff03821115610dee57610ded610ef6565b5b828201905092915050565b6000610e0482610e6b565b9150610e0f83610e6b565b925082821015610e2257610e21610ef6565b5b828203905092915050565b6000610e3882610e4b565b9050919050565b60008115159050919050565b600073ffffffffffffffffffffffffffffffffffffffff82169050919050565b6000819050919050565b600060ff82169050919050565b82818337600083830152505050565b60005b83811015610eaf578082015181840152602081019050610e94565b83811115610ebe576000848401525b50505050565b60006002820490506001821680610edc57607f821691505b60208210811415610ef057610eef610f25565b5b50919050565b7f4e487b7100000000000000000000000000000000000000000000000000000000600052601160045260246000fd5b7f4e487b7100000000000000000000000000000000000000000000000000000000600052602260045260246000fd5b7f4e487b7100000000000000000000000000000000000000000000000000000000600052604160045260246000fd5b6000601f19601f8301169050919050565b610f9d81610e2d565b8114610fa857600080fd5b50565b610fb481610e6b565b8114610fbf57600080fd5b5056fea264697066735822122022835ed54fa9e242d2ba35c123b61a29866f19ff81d7182cd473fc2e6200d4dc64736f6c63430008000033",
  "immutableReferences": {},
  "source": "// SPDX-License-Identifier: MITp\r\npragma solidity ^0.8.0;\r\n\r\n// Caller of this contract is made the admin/owner for HCoin\r\n// this contract allows us transfer ownership to another account (transferAdminship)\r\ncontract admined {\r\n    address public admin;\r\n\r\n    // constructor ??\r\n    constructor() {\r\n        admin = msg.sender;\r\n    }\r\n\r\n    modifier onlyAdmin() {\r\n        require(msg.sender == admin);\r\n        _;\r\n    }\r\n\r\n    function transferAdminship(address newAdmin) public onlyAdmin {\r\n        admin = newAdmin;\r\n    }\r\n}\r\n\r\ncontract HCoin {\r\n    mapping(address => uint256) public balanceOf;\r\n    mapping(address => mapping(address => uint256)) public allowance;\r\n\r\n    string public standard = \"HCoin v1.0\";\r\n    string public name;\r\n    string public symbol;\r\n    uint8 public decimals;\r\n    uint256 public totalSupply;\r\n\r\n    event Transfer(address indexed from, address indexed to, uint256 value);\r\n\r\n    constructor(\r\n        uint256 initialSupply,\r\n        string memory tokenName,\r\n        string memory tokenSymbol,\r\n        uint8 decimalUnits\r\n    ) {\r\n        balanceOf[msg.sender] = initialSupply;\r\n        totalSupply = initialSupply;\r\n        decimals = decimalUnits;\r\n        symbol = tokenSymbol;\r\n        name = tokenName;\r\n    }\r\n\r\n    function setStandard(string memory _standard) public {\r\n        standard = _standard;\r\n    }\r\n\r\n    function transfer(address _to, uint256 _value) public {\r\n        //the following require statements are checking for overflows/underflows\r\n        require(balanceOf[msg.sender] > _value);\r\n        require(balanceOf[_to] + _value > balanceOf[_to]);\r\n\r\n        balanceOf[msg.sender] -= _value;\r\n        balanceOf[_to] += _value;\r\n        emit Transfer(msg.sender, _to, _value);\r\n    }\r\n\r\n    // owner of tokens can approve amount of tokens another address can spend on their behalf\r\n    function approve(address _spender, uint256 _value) public returns (bool _success) {\r\n        allowance[msg.sender][_spender] = _value;\r\n        return true;\r\n    }\r\n    \r\n    // Transfer tokens from one address to another, from \r\n    function transferFrom(address _from, address _to, uint256 _value) public returns (bool _success){\r\n        require(balanceOf[_from] > _value);\r\n        require(balanceOf[_to] + _value > balanceOf[_to]);\r\n        require(_value < allowance[_from][msg.sender]);\r\n        balanceOf[_from] -= _value;\r\n        balanceOf[_to] += _value;\r\n        allowance[_from][msg.sender] -= _value;\r\n        emit Transfer(_from, _to, _value);\r\n        return true;\r\n    }\r\n\r\n}\r\n",
  "sourcePath": "C:/Users/litad/Documents/Projects/blockchain-council/erc20/contracts/tokenCoin.sol",
  "compiler": {
    "name": "solc",
    "version": "0.8.0+commit.c7dfd78e.Emscripten.clang"
  },
  "schemaVersion": "3.4.1",
  "updatedAt": "2021-06-22T08:11:55.468Z",
  "networkType": "ethereum",
  "devdoc": {
    "kind": "dev",
    "methods": {},
    "version": 1
  },
  "userdoc": {
    "kind": "user",
    "methods": {},
    "version": 1
  }
}