{
  "contractName": "Filing",
  "abi": [
    {
      "inputs": [
        {
          "internalType": "string",
          "name": "_name",
          "type": "string"
        },
        {
          "internalType": "string",
          "name": "_report_type",
          "type": "string"
        },
        {
          "internalType": "string",
          "name": "_description",
          "type": "string"
        }
      ],
      "stateMutability": "nonpayable",
      "type": "constructor"
    },
    {
      "anonymous": false,
      "inputs": [
        {
          "indexed": true,
          "internalType": "address",
          "name": "_reporter",
          "type": "address"
        },
        {
          "indexed": false,
          "internalType": "string",
          "name": "_name",
          "type": "string"
        },
        {
          "indexed": false,
          "internalType": "string",
          "name": "_report_type",
          "type": "string"
        },
        {
          "indexed": false,
          "internalType": "string",
          "name": "_description",
          "type": "string"
        }
      ],
      "name": "createReportEvent",
      "type": "event"
    },
    {
      "inputs": [],
      "name": "getReport",
      "outputs": [
        {
          "internalType": "address",
          "name": "_reporter",
          "type": "address"
        },
        {
          "internalType": "string",
          "name": "_name",
          "type": "string"
        },
        {
          "internalType": "string",
          "name": "_report_type",
          "type": "string"
        },
        {
          "internalType": "string",
          "name": "_description",
          "type": "string"
        },
        {
          "internalType": "uint256",
          "name": "_report_status",
          "type": "uint256"
        }
      ],
      "stateMutability": "view",
      "type": "function",
      "constant": true
    },
    {
      "inputs": [
        {
          "internalType": "uint256",
          "name": "_report_status",
          "type": "uint256"
        }
      ],
      "name": "setStatus",
      "outputs": [],
      "stateMutability": "nonpayable",
      "type": "function"
    }
  ],
  "bytecode": "0x60806040523480156200001157600080fd5b5060405162000a0538038062000a0583398181016040528101906200003791906200026c565b336000806101000a81548173ffffffffffffffffffffffffffffffffffffffff021916908373ffffffffffffffffffffffffffffffffffffffff16021790555082600190805190602001906200008f9291906200014a565b508160029080519060200190620000a89291906200014a565b508060039080519060200190620000c19291906200014a565b50600160048190555060008054906101000a900473ffffffffffffffffffffffffffffffffffffffff1673ffffffffffffffffffffffffffffffffffffffff167f36e8452b5b1e677577e49e4d6864494d0bed23f134aab184e1e035a16f2db5d3600160026003604051620001399392919062000399565b60405180910390a250505062000542565b8280546200015890620004ae565b90600052602060002090601f0160209004810192826200017c5760008555620001c8565b82601f106200019757805160ff1916838001178555620001c8565b82800160010185558215620001c8579182015b82811115620001c7578251825591602001919060010190620001aa565b5b509050620001d79190620001db565b5090565b5b80821115620001f6576000816000905550600101620001dc565b5090565b6000620002116200020b846200041f565b620003eb565b9050828152602081018484840111156200022a57600080fd5b6200023784828562000478565b509392505050565b600082601f8301126200025157600080fd5b815162000263848260208601620001fa565b91505092915050565b6000806000606084860312156200028257600080fd5b600084015167ffffffffffffffff8111156200029d57600080fd5b620002ab868287016200023f565b935050602084015167ffffffffffffffff811115620002c957600080fd5b620002d7868287016200023f565b925050604084015167ffffffffffffffff811115620002f557600080fd5b62000303868287016200023f565b9150509250925092565b600081546200031c81620004ae565b62000328818662000467565b94506001821660008114620003465760018114620003595762000390565b60ff198316865260208601935062000390565b620003648562000452565b60005b83811015620003885781548189015260018201915060208101905062000367565b808801955050505b50505092915050565b60006060820190508181036000830152620003b581866200030d565b90508181036020830152620003cb81856200030d565b90508181036040830152620003e181846200030d565b9050949350505050565b6000604051905081810181811067ffffffffffffffff8211171562000415576200041462000513565b5b8060405250919050565b600067ffffffffffffffff8211156200043d576200043c62000513565b5b601f19601f8301169050602081019050919050565b60008190508160005260206000209050919050565b600082825260208201905092915050565b60005b83811015620004985780820151818401526020810190506200047b565b83811115620004a8576000848401525b50505050565b60006002820490506001821680620004c757607f821691505b60208210811415620004de57620004dd620004e4565b5b50919050565b7f4e487b7100000000000000000000000000000000000000000000000000000000600052602260045260246000fd5b7f4e487b7100000000000000000000000000000000000000000000000000000000600052604160045260246000fd5b6104b380620005526000396000f3fe608060405234801561001057600080fd5b50600436106100365760003560e01c806369ba1a751461003b578063e4085d6714610057575b600080fd5b61005560048036038101906100509190610281565b610079565b005b61005f610083565b604051610070959493929190610301565b60405180910390f35b8060048190555050565b6000606080606060008060009054906101000a900473ffffffffffffffffffffffffffffffffffffffff166001600260036004548380546100c3906103f4565b80601f01602080910402602001604051908101604052809291908181526020018280546100ef906103f4565b801561013c5780601f106101115761010080835404028352916020019161013c565b820191906000526020600020905b81548152906001019060200180831161011f57829003601f168201915b5050505050935082805461014f906103f4565b80601f016020809104026020016040519081016040528092919081815260200182805461017b906103f4565b80156101c85780601f1061019d576101008083540402835291602001916101c8565b820191906000526020600020905b8154815290600101906020018083116101ab57829003601f168201915b505050505092508180546101db906103f4565b80601f0160208091040260200160405190810160405280929190818152602001828054610207906103f4565b80156102545780601f1061022957610100808354040283529160200191610254565b820191906000526020600020905b81548152906001019060200180831161023757829003601f168201915b50505050509150945094509450945094509091929394565b60008135905061027b81610466565b92915050565b60006020828403121561029357600080fd5b60006102a18482850161026c565b91505092915050565b6102b381610385565b82525050565b60006102c482610369565b6102ce8185610374565b93506102de8185602086016103c1565b6102e781610455565b840191505092915050565b6102fb816103b7565b82525050565b600060a08201905061031660008301886102aa565b818103602083015261032881876102b9565b9050818103604083015261033c81866102b9565b9050818103606083015261035081856102b9565b905061035f60808301846102f2565b9695505050505050565b600081519050919050565b600082825260208201905092915050565b600061039082610397565b9050919050565b600073ffffffffffffffffffffffffffffffffffffffff82169050919050565b6000819050919050565b60005b838110156103df5780820151818401526020810190506103c4565b838111156103ee576000848401525b50505050565b6000600282049050600182168061040c57607f821691505b602082108114156104205761041f610426565b5b50919050565b7f4e487b7100000000000000000000000000000000000000000000000000000000600052602260045260246000fd5b6000601f19601f8301169050919050565b61046f816103b7565b811461047a57600080fd5b5056fea26469706673582212202d412c579d6ffca828655dc3bf04c22954576202ec67b6d59c06f148dc16569964736f6c63430008000033",
  "immutableReferences": {},
  "source": "// SPDX-License-Identifier: MIT;\r\npragma solidity ^0.8.0;\r\n\r\n// Decentralized Investigation Reporting contract\r\ncontract Filing {\r\n\r\n    address reporter;\r\n    string name;\r\n    string report_type;\r\n    string description;\r\n    uint256 report_status;\r\n\r\n    // event for the new report filed\r\n    event createReportEvent(\r\n        address indexed _reporter,\r\n        string _name,\r\n        string _report_type,\r\n        string _description\r\n    );\r\n\r\n    // function to create a report with initialized variableNames\r\n    constructor(\r\n        string memory _name,\r\n        string memory _report_type,\r\n        string memory _description\r\n    ) {\r\n        reporter = msg.sender;\r\n        name = _name;\r\n        report_type = _report_type;\r\n        description = _description;\r\n        report_status = 1;\r\n        emit createReportEvent(reporter, name, report_type, description);\r\n    }\r\n\r\n    // GetReport function will return details of report filed\r\n    function getReport() public view returns(address _reporter,\r\n        string memory _name,\r\n        string memory _report_type,\r\n        string memory _description,\r\n        uint _report_status){\r\n            return (reporter,name,report_type,description, report_status);\r\n        }\r\n    \r\n    // setStatus function updates the status of the report\r\n    function setStatus(uint _report_status) public {\r\n        report_status = _report_status;\r\n    }\r\n\r\n}\r\n",
  "sourcePath": "C:/Users/litad/Documents/Projects/blockchain-council/firFiling/contracts/Filing.sol",
  "compiler": {
    "name": "solc",
    "version": "0.8.0+commit.c7dfd78e.Emscripten.clang"
  },
  "schemaVersion": "3.4.1",
  "updatedAt": "2021-06-22T09:02:25.060Z",
  "networkType": "ethereum",
  "devdoc": {
    "kind": "dev",
    "methods": {},
    "version": 1
  },
  "userdoc": {
    "kind": "user",
    "methods": {},
    "version": 1
  }
}