{
  "contractName": "Todo",
  "abi": [
    {
      "anonymous": false,
      "inputs": [
        {
          "indexed": false,
          "internalType": "uint256",
          "name": "id",
          "type": "uint256"
        },
        {
          "indexed": false,
          "internalType": "string",
          "name": "task",
          "type": "string"
        },
        {
          "indexed": false,
          "internalType": "string",
          "name": "time",
          "type": "string"
        }
      ],
      "name": "LogTaskAdded",
      "type": "event"
    },
    {
      "anonymous": false,
      "inputs": [
        {
          "indexed": false,
          "internalType": "string",
          "name": "msg",
          "type": "string"
        },
        {
          "indexed": false,
          "internalType": "uint256",
          "name": "id",
          "type": "uint256"
        }
      ],
      "name": "LogTaskDeleted",
      "type": "event"
    },
    {
      "inputs": [],
      "name": "getTaskCount",
      "outputs": [
        {
          "internalType": "uint256",
          "name": "_taskCount",
          "type": "uint256"
        }
      ],
      "stateMutability": "view",
      "type": "function",
      "constant": true
    },
    {
      "inputs": [
        {
          "internalType": "uint256",
          "name": "_index",
          "type": "uint256"
        }
      ],
      "name": "getTaskIdAt",
      "outputs": [
        {
          "internalType": "uint256",
          "name": "_taskId",
          "type": "uint256"
        }
      ],
      "stateMutability": "view",
      "type": "function",
      "constant": true
    },
    {
      "inputs": [
        {
          "internalType": "uint256",
          "name": "id",
          "type": "uint256"
        }
      ],
      "name": "getTask",
      "outputs": [
        {
          "internalType": "string",
          "name": "_task",
          "type": "string"
        },
        {
          "internalType": "string",
          "name": "_time",
          "type": "string"
        }
      ],
      "stateMutability": "view",
      "type": "function",
      "constant": true
    },
    {
      "inputs": [
        {
          "internalType": "uint256",
          "name": "_id",
          "type": "uint256"
        },
        {
          "internalType": "string",
          "name": "_task",
          "type": "string"
        },
        {
          "internalType": "string",
          "name": "_time",
          "type": "string"
        }
      ],
      "name": "addTask",
      "outputs": [
        {
          "internalType": "bool",
          "name": "_success",
          "type": "bool"
        }
      ],
      "stateMutability": "nonpayable",
      "type": "function"
    },
    {
      "inputs": [
        {
          "internalType": "uint256",
          "name": "_id",
          "type": "uint256"
        }
      ],
      "name": "deleteTask",
      "outputs": [
        {
          "internalType": "bool",
          "name": "_success",
          "type": "bool"
        }
      ],
      "stateMutability": "nonpayable",
      "type": "function"
    }
  ],
  "bytecode": "0x608060405234801561001057600080fd5b50610983806100206000396000f3fe608060405234801561001057600080fd5b50600436106100575760003560e01c80631d65e77e1461005c578063560f31921461008d578063c17a340e146100bd578063f5d02123146100db578063fb8820c21461010b575b600080fd5b610076600480360381019061007191906105a1565b61013b565b6040516100849291906106fb565b60405180910390f35b6100a760048036038101906100a291906105a1565b61027e565b6040516100b491906106e0565b60405180910390f35b6100c5610351565b6040516100d29190610760565b60405180910390f35b6100f560048036038101906100f091906105a1565b61035e565b6040516101029190610760565b60405180910390f35b610125600480360381019061012091906105ca565b6103ac565b60405161013291906106e0565b60405180910390f35b60608060008060008581526020019081526020016000209050806000018160010181805461016890610895565b80601f016020809104026020016040519081016040528092919081815260200182805461019490610895565b80156101e15780601f106101b6576101008083540402835291602001916101e1565b820191906000526020600020905b8154815290600101906020018083116101c457829003601f168201915b505050505091508080546101f490610895565b80601f016020809104026020016040519081016040528092919081815260200182805461022090610895565b801561026d5780601f106102425761010080835404028352916020019161026d565b820191906000526020600020905b81548152906001019060200180831161025057829003601f168201915b505050505090509250925050915091565b600080600183815481106102bb577f4e487b7100000000000000000000000000000000000000000000000000000000600052603260045260246000fd5b9060005260206000200154905060018381548110610302577f4e487b7100000000000000000000000000000000000000000000000000000000600052603260045260246000fd5b90600052602060002001600090557f4d1734681be5efac2a75d4a2fdbb9a0022ace3435eccd5a5848ba0be4ee67f3f8160405161033f9190610732565b60405180910390a16001915050919050565b6000600180549050905090565b60006001828154811061039a577f4e487b7100000000000000000000000000000000000000000000000000000000600052603260045260246000fd5b90600052602060002001549050919050565b600060405180604001604052808481526020018381525060008086815260200190815260200160002060008201518160000190805190602001906103f1929190610481565b50602082015181600101908051906020019061040e929190610481565b5090505060018490806001815401808255809150506001900390600052602060002001600090919091909150557f465dcef349131c00c73684c73bf8af8da869c54044b9b12d80e66ec654c717eb84848460405161046e9392919061077b565b60405180910390a1600190509392505050565b82805461048d90610895565b90600052602060002090601f0160209004810192826104af57600085556104f6565b82601f106104c857805160ff19168380011785556104f6565b828001600101855582156104f6579182015b828111156104f55782518255916020019190600101906104da565b5b5090506105039190610507565b5090565b5b80821115610520576000816000905550600101610508565b5090565b6000610537610532846107f1565b6107c0565b90508281526020810184848401111561054f57600080fd5b61055a848285610853565b509392505050565b600082601f83011261057357600080fd5b8135610583848260208601610524565b91505092915050565b60008135905061059b81610936565b92915050565b6000602082840312156105b357600080fd5b60006105c18482850161058c565b91505092915050565b6000806000606084860312156105df57600080fd5b60006105ed8682870161058c565b935050602084013567ffffffffffffffff81111561060a57600080fd5b61061686828701610562565b925050604084013567ffffffffffffffff81111561063357600080fd5b61063f86828701610562565b9150509250925092565b6106528161083d565b82525050565b600061066382610821565b61066d818561082c565b935061067d818560208601610862565b61068681610925565b840191505092915050565b600061069e60148361082c565b91507f5461736b2064656c6574656420776974682069640000000000000000000000006000830152602082019050919050565b6106da81610849565b82525050565b60006020820190506106f56000830184610649565b92915050565b600060408201905081810360008301526107158185610658565b905081810360208301526107298184610658565b90509392505050565b6000604082019050818103600083015261074b81610691565b905061075a60208301846106d1565b92915050565b600060208201905061077560008301846106d1565b92915050565b600060608201905061079060008301866106d1565b81810360208301526107a28185610658565b905081810360408301526107b68184610658565b9050949350505050565b6000604051905081810181811067ffffffffffffffff821117156107e7576107e66108f6565b5b8060405250919050565b600067ffffffffffffffff82111561080c5761080b6108f6565b5b601f19601f8301169050602081019050919050565b600081519050919050565b600082825260208201905092915050565b60008115159050919050565b6000819050919050565b82818337600083830152505050565b60005b83811015610880578082015181840152602081019050610865565b8381111561088f576000848401525b50505050565b600060028204905060018216806108ad57607f821691505b602082108114156108c1576108c06108c7565b5b50919050565b7f4e487b7100000000000000000000000000000000000000000000000000000000600052602260045260246000fd5b7f4e487b7100000000000000000000000000000000000000000000000000000000600052604160045260246000fd5b6000601f19601f8301169050919050565b61093f81610849565b811461094a57600080fd5b5056fea264697066735822122013cee4d0231c3246f31df01dae8bf65161e882faa8d04b93583c8f7cc5bf81e364736f6c63430008000033",
  "immutableReferences": {},
  "source": "// SPDX-License-Identifier: MIT\r\npragma solidity ^0.8.0;\r\n\r\ncontract Todo {\r\n    // data structure to represent a routine item\r\n    struct Routine {\r\n        string task;\r\n        string time;\r\n    }\r\n    // log events added\r\n    event LogTaskAdded(uint256 id, string task, string time);\r\n    event LogTaskDeleted(string msg, uint256 id);\r\n\r\n    // mapping to hold all the routines created\r\n    mapping(uint256 => Routine) private routines;\r\n    uint256[] private ids;\r\n\r\n    function getTaskCount() public view returns (uint256 _taskCount) {\r\n        _taskCount = ids.length;\r\n    }\r\n\r\n    // get task id for a specific index\r\n    function getTaskIdAt(uint256 _index) public view returns (uint256 _taskId) {\r\n        _taskId = ids[_index];\r\n    }\r\n\r\n    function getTask(uint256 id)\r\n        public\r\n        view\r\n        returns (string memory _task, string memory _time)\r\n    {\r\n        Routine storage foundRoutine = routines[id];\r\n        return (foundRoutine.task, foundRoutine.time);\r\n    }\r\n\r\n    function addTask(\r\n        uint256 _id,\r\n        string memory _task,\r\n        string memory _time\r\n    ) public returns (bool _success) {\r\n        routines[_id] = Routine({task: _task, time: _time});\r\n        ids.push(_id);\r\n        emit LogTaskAdded(_id, _task, _time);\r\n        _success = true;\r\n    }\r\n\r\n\r\n    function deleteTask(uint256 _id) public returns (bool _success) {\r\n        uint256 element = ids[_id];\r\n        delete ids[_id];\r\n        emit LogTaskDeleted(\"Task deleted with id\", element);\r\n        return true;\r\n    }\r\n\r\n}\r\n",
  "sourcePath": "C:/Users/litad/Documents/Projects/blockchain-council/ToDo/contracts/Todo.sol",
  "compiler": {
    "name": "solc",
    "version": "0.8.0+commit.c7dfd78e.Emscripten.clang"
  },
  "schemaVersion": "3.4.1",
  "updatedAt": "2021-06-22T10:23:10.840Z",
  "networkType": "ethereum",
  "devdoc": {
    "kind": "dev",
    "methods": {},
    "version": 1
  },
  "userdoc": {
    "kind": "user",
    "methods": {},
    "version": 1
  }
}