{
  "contractName": "Sellable",
  "abi": [
    {
      "inputs": [],
      "stateMutability": "nonpayable",
      "type": "constructor"
    },
    {
      "anonymous": false,
      "inputs": [
        {
          "indexed": false,
          "internalType": "uint256",
          "name": "_saleDate",
          "type": "uint256"
        },
        {
          "indexed": false,
          "internalType": "address",
          "name": "_from",
          "type": "address"
        },
        {
          "indexed": false,
          "internalType": "address",
          "name": "_to",
          "type": "address"
        },
        {
          "indexed": false,
          "internalType": "uint256",
          "name": "_salePrice",
          "type": "uint256"
        }
      ],
      "name": "Transfer",
      "type": "event"
    },
    {
      "inputs": [],
      "name": "buyer",
      "outputs": [
        {
          "internalType": "address",
          "name": "",
          "type": "address"
        }
      ],
      "stateMutability": "view",
      "type": "function",
      "constant": true
    },
    {
      "inputs": [],
      "name": "owner",
      "outputs": [
        {
          "internalType": "address",
          "name": "",
          "type": "address"
        }
      ],
      "stateMutability": "view",
      "type": "function",
      "constant": true
    },
    {
      "inputs": [],
      "name": "price",
      "outputs": [
        {
          "internalType": "uint256",
          "name": "",
          "type": "uint256"
        }
      ],
      "stateMutability": "view",
      "type": "function",
      "constant": true
    },
    {
      "inputs": [],
      "name": "selling",
      "outputs": [
        {
          "internalType": "bool",
          "name": "",
          "type": "bool"
        }
      ],
      "stateMutability": "view",
      "type": "function",
      "constant": true
    },
    {
      "inputs": [
        {
          "internalType": "uint256",
          "name": "_price",
          "type": "uint256"
        },
        {
          "internalType": "address",
          "name": "_to",
          "type": "address"
        }
      ],
      "name": "initiateSale",
      "outputs": [],
      "stateMutability": "nonpayable",
      "type": "function"
    },
    {
      "inputs": [],
      "name": "cancelSale",
      "outputs": [],
      "stateMutability": "nonpayable",
      "type": "function"
    },
    {
      "inputs": [
        {
          "internalType": "uint256",
          "name": "valued",
          "type": "uint256"
        }
      ],
      "name": "completeSale",
      "outputs": [],
      "stateMutability": "payable",
      "type": "function",
      "payable": true
    }
  ],
  "bytecode": "0x608060405260008060146101000a81548160ff02191690831515021790555034801561002a57600080fd5b50336000806101000a81548173ffffffffffffffffffffffffffffffffffffffff021916908373ffffffffffffffffffffffffffffffffffffffff1602179055507ff2dbd98d79f00f7aff338b824931d607bfcc63d47307162470f25a055102d3b04260008060009054906101000a900473ffffffffffffffffffffffffffffffffffffffff1660006040516100c394939291906100fd565b60405180910390a1610190565b6100d981610142565b82525050565b6100e88161017e565b82525050565b6100f781610174565b82525050565b600060808201905061011260008301876100ee565b61011f60208301866100d0565b61012c60408301856100d0565b61013960608301846100df565b95945050505050565b600061014d82610154565b9050919050565b600073ffffffffffffffffffffffffffffffffffffffff82169050919050565b6000819050919050565b600061018982610174565b9050919050565b6108198061019f6000396000f3fe6080604052600436106100705760003560e01c8063750225d01161004e578063750225d0146100f45780638da5cb5b14610110578063a035b1fe1461013b578063e7e104901461016657610070565b806309e949e81461007557806323aed2281461009e5780637150d8ae146100c9575b600080fd5b34801561008157600080fd5b5061009c6004803603810190610097919061066e565b61017d565b005b3480156100aa57600080fd5b506100b36102e7565b6040516100c091906106f2565b60405180910390f35b3480156100d557600080fd5b506100de6102fa565b6040516100eb91906106d7565b60405180910390f35b61010e60048036038101906101099190610645565b610320565b005b34801561011c57600080fd5b50610125610510565b60405161013291906106d7565b60405180910390f35b34801561014757600080fd5b50610150610534565b60405161015d919061070d565b60405180910390f35b34801561017257600080fd5b5061017b61053a565b005b60008054906101000a900473ffffffffffffffffffffffffffffffffffffffff1673ffffffffffffffffffffffffffffffffffffffff163373ffffffffffffffffffffffffffffffffffffffff16146101d557600080fd5b3073ffffffffffffffffffffffffffffffffffffffff168173ffffffffffffffffffffffffffffffffffffffff161415801561025d575060008054906101000a900473ffffffffffffffffffffffffffffffffffffffff1673ffffffffffffffffffffffffffffffffffffffff168173ffffffffffffffffffffffffffffffffffffffff1614155b61026657600080fd5b600060149054906101000a900460ff161561028057600080fd5b6001600060146101000a81548160ff02191690831515021790555080600160006101000a81548173ffffffffffffffffffffffffffffffffffffffff021916908373ffffffffffffffffffffffffffffffffffffffff160217905550816002819055505050565b600060149054906101000a900460ff1681565b600160009054906101000a900473ffffffffffffffffffffffffffffffffffffffff1681565b600060149054906101000a900460ff1661033957600080fd5b60008054906101000a900473ffffffffffffffffffffffffffffffffffffffff1673ffffffffffffffffffffffffffffffffffffffff163373ffffffffffffffffffffffffffffffffffffffff16141561039257600080fd5b600160009054906101000a900473ffffffffffffffffffffffffffffffffffffffff1673ffffffffffffffffffffffffffffffffffffffff163373ffffffffffffffffffffffffffffffffffffffff16148061043c5750600073ffffffffffffffffffffffffffffffffffffffff16600160009054906101000a900473ffffffffffffffffffffffffffffffffffffffff1673ffffffffffffffffffffffffffffffffffffffff16145b61044557600080fd5b600254811461045357600080fd5b60008060009054906101000a900473ffffffffffffffffffffffffffffffffffffffff169050600033905060006002549050816000806101000a81548173ffffffffffffffffffffffffffffffffffffffff021916908373ffffffffffffffffffffffffffffffffffffffff1602179055507ff2dbd98d79f00f7aff338b824931d607bfcc63d47307162470f25a055102d3b0428484846040516104fa9493929190610728565b60405180910390a161050a6105b5565b50505050565b60008054906101000a900473ffffffffffffffffffffffffffffffffffffffff1681565b60025481565b60008054906101000a900473ffffffffffffffffffffffffffffffffffffffff1673ffffffffffffffffffffffffffffffffffffffff163373ffffffffffffffffffffffffffffffffffffffff161461059257600080fd5b600060149054906101000a900460ff166105ab57600080fd5b6105b36105b5565b565b60008060146101000a81548160ff0219169083151502179055506000600160006101000a81548173ffffffffffffffffffffffffffffffffffffffff021916908373ffffffffffffffffffffffffffffffffffffffff1602179055506000600281905550565b60008135905061062a816107b5565b92915050565b60008135905061063f816107cc565b92915050565b60006020828403121561065757600080fd5b600061066584828501610630565b91505092915050565b6000806040838503121561068157600080fd5b600061068f85828601610630565b92505060206106a08582860161061b565b9150509250929050565b6106b38161076d565b82525050565b6106c28161077f565b82525050565b6106d1816107ab565b82525050565b60006020820190506106ec60008301846106aa565b92915050565b600060208201905061070760008301846106b9565b92915050565b600060208201905061072260008301846106c8565b92915050565b600060808201905061073d60008301876106c8565b61074a60208301866106aa565b61075760408301856106aa565b61076460608301846106c8565b95945050505050565b60006107788261078b565b9050919050565b60008115159050919050565b600073ffffffffffffffffffffffffffffffffffffffff82169050919050565b6000819050919050565b6107be8161076d565b81146107c957600080fd5b50565b6107d5816107ab565b81146107e057600080fd5b5056fea2646970667358221220455cf0fc28d4eb54ec56e4dae837c4bbf3f9a9cf56aa2f49f5954afacb32fdf964736f6c63430008000033",
  "immutableReferences": {},
  "source": "// SPDX-License-Identifier: MIT\r\npragma solidity ^0.8.0;\r\n\r\ncontract Sellable {\r\n    // owner of contract\r\n    address public owner;\r\n\r\n    // current sale status\r\n    bool public selling = false;\r\n\r\n    // buyer of contract\r\n    address public buyer;\r\n    // price in ether(wei)\r\n    uint256 public price;\r\n\r\n    modifier onlyOwner {\r\n        require(msg.sender == owner);\r\n        _;\r\n    }\r\n\r\n    // applied to functions should not be called while contract is for sale\r\n    modifier ifNotLocked {\r\n        require(!selling);\r\n        _;\r\n    }\r\n    event Transfer(\r\n        uint256 _saleDate,\r\n        address _from,\r\n        address _to,\r\n        uint256 _salePrice\r\n    );\r\n\r\n    constructor() {\r\n        owner = msg.sender;\r\n        emit Transfer(block.timestamp, address(0), owner, 0);\r\n    }\r\n\r\n    function initiateSale(uint256 _price, address _to) public onlyOwner {\r\n        require(_to != address(this) && _to != owner);\r\n        require(!selling);\r\n\r\n        selling = true;\r\n        buyer = _to;\r\n        price = _price;\r\n    }\r\n\r\n    // cancel sale of a contract\r\n    function cancelSale() onlyOwner public{\r\n        require(selling);\r\n\r\n        resetSale();\r\n    }\r\n\r\n// Called by the buyer of the contract. Value sent must match the asking price\r\n    function completeSale(uint valued) public payable {\r\n        require(selling);\r\n        require(msg.sender != owner);\r\n        require(msg.sender == buyer || buyer == address(0));\r\n        require(valued == price);\r\n\r\n        // swap ownership\r\n        address prevOwner = owner;\r\n        address newOwner = msg.sender;\r\n        uint salePrice = price;\r\n\r\n        owner = newOwner;\r\n\r\n        emit Transfer(block.timestamp, prevOwner, newOwner, salePrice);\r\n        resetSale();\r\n    }\r\n \r\n\r\n//  resets variables to initial values\r\n    function resetSale() internal {\r\n        selling = false;\r\n        buyer = address(0);\r\n        price = 0;\r\n    }\r\n}\r\n",
  "sourcePath": "C:/Users/litad/Documents/Projects/blockchain-council/sellableContract/contracts/Sellable.sol",
  "compiler": {
    "name": "solc",
    "version": "0.8.0+commit.c7dfd78e.Emscripten.clang"
  },
  "schemaVersion": "3.4.1",
  "updatedAt": "2021-06-24T01:02:00.684Z",
  "networkType": "ethereum",
  "devdoc": {
    "kind": "dev",
    "methods": {},
    "version": 1
  },
  "userdoc": {
    "kind": "user",
    "methods": {},
    "version": 1
  }
}